:020000040800F2
:1000000018300020C9010008D1010008D301000800
:10001000D5010008D7010008D90100080000000040
:10002000000000000000000000000000DB010008EC
:10003000DD01000800000000DF010008E101000808
:10004000E3010008E3010008E3010008E301000800
:10005000E3010008E3010008E3010008E3010008F0
:10006000E3010008E3010008E3010008E3010008E0
:10007000E3010008E5040008E3010008E3010008CB
:10008000E3010008E3010008E3010008E3010008C0
:10009000E3010008E3010008E3010008E3010008B0
:1000A000E3010008E3010008E3010008A50A0008D5
:1000B000C90A0008E3010008E3010008E3010008A1
:1000C000E3010008E3010008E3010008E301000880
:1000D000E3010008E3010008E3010008E301000870
:1000E000E3010008E3010008E301000800F002F862
:1000F00000F040F80AA090E8000C82448344AAF182
:100100000107DA4501D100F035F8AFF2090EBAE87F
:100110000F0013F0010F18BFFB1A43F0010318473B
:10012000E41F000004200000103A24BF78C878C102
:10013000FAD8520724BF30C830C144BF04680C60ED
:10014000704700000023002400250026103A28BF35
:1001500078C1FBD8520728BF30C148BF0B60704739
:100160001FB59DE8030000F0E3F800F0B8F81FBDEC
:1001700010B510BD00F038F91146FFF7F1FF00F09F
:10018000DDFF00F056F903B4FFF7F2FF03BC00F007
:1001900083F900000B49D1F800C04A685CF8043BC1
:1001A0001068184442F8040B8C4528BFA1F1DC0C00
:1001B0008A4228BFA1F1DC02C1F800C04A6020F0E9
:1001C00000407047B029002009488047094800478F
:1001D000FEE7FEE7FEE7FEE7FEE7FEE7FEE7FEE7F7
:1001E000FEE7FEE704480549054A064B7047000054
:1001F000450A0008ED000008182A002018300020E9
:10020000182C0020182C002070B5064600F074F859
:10021000056806F10B0020F00704B4429CBF0020E3
:1002200070BD2B466A68BAB11068A04210D304F1C1
:10023000080188423CBF5068586007D351681019C4
:1002400041601168091B016058601460101D70BD89
:1002500013465268002AE7D12146284600F054F898
:100260000028DED170BD70B50446051F00F044F8CB
:100270000068002C14BF446870BD002C18BFAC424D
:100280003CBF20466468F8D301680A18AA4218BF28
:10029000456003D12A680546114401602868411968
:1002A000A1421CBF6C6070BD616869602168084430
:1002B000286070BD0B4910B5A1F17C020A4CC2E95F
:1002C0003712372106E000EB104342F82130074B8C
:1002D00000FB03400B1EA1F10101F4DC10BD012065
:1002E000E8E7000050290020E119D666CD0D010095
:1002F000704770477047000000487047C0290020D1
:10030000704770477047704738B504460A4600206A
:100310006946AFF30080002808BF38BD0246009947
:10032000204600F03FF8012038BD012000F054B80D
:10033000F8B5AFF30080054600200C46102000BF42
:100340000646A819A0420DD9324669460020AFF3EF
:100350000080070008BF00F03FF80098A04218BFD7
:100360000546C419FFF7C8FF05600746F01D20F0D9
:1003700007004619284600F00AF8B44208BFF8BD45
:10038000A21B31463868BDE8F84000F00BB80021E8
:100390000160C0E9011070471020704700487047A5
:1003A000B8290020034640688C46002818BF8842C0
:1003B0003CBF03464068F8D318681844884207D009
:1003C0000CF1030020F00700001D411A521A0146EB
:1003D000081D0A60FFF747BF10B500F035F8BDE80B
:1003E000104000F02CB870477546FFF7D7FFAE46B7
:1003F00005006946534620F00700854618B020B531
:10040000FFF7F0FEBDE820404FF000064FF0000778
:100410004FF000084FF0000B21F00701AC46ACE8AC
:10042000C009ACE8C009ACE8C009ACE8C0098D4619
:1004300070470446AFF300802046FFF7A4FE002873
:1004400001D000F029B8704710B5012805D000216F
:1004500003A000F027F8012010BD09A1F8E7000073
:1004600053494752544D454D3A204F7574206F669D
:100470002068656170206D656D6F72790000000005
:100480003A2048656170206D656D6F727920636FE9
:10049000727275707465640001491820ABBEFEE786
:1004A0002600020070B505460C460A2000E06D1CCF
:1004B00000F011F835B128780028F8D102E0641C6A
:1004C00000F009F814B120780028F8D1BDE8704098
:1004D0000A20AFF3008008B569468DF800000320BC
:1004E000ABBE08BD4FF40070154948609220086308
:1004F0003420486313480068401C124908600846CD
:10050000006803281AD1002008600F480088401CAA
:100510000D49088008460088C8280AD100200B49E8
:100520000860094908800749086009480449C86308
:1005300004E00348C06B34300149C86370470000D1
:100540000000024020000020180000201C000020B5
:100550002800002001684FF6FE7211400160002162
:10056000016041608160C1604B49884208D14A49BD
:100570000839496841F00F01474A083A51608AE05A
:1005800045491431884208D143490839496841F046
:10059000F001414A083A51607DE03F4928318842E4
:1005A00008D13D490839496841F470613A4A083A2E
:1005B000516070E038493C31884208D136490839E9
:1005C000496841F47041344A083A516063E0324965
:1005D0005031884208D130490839496841F47021C6
:1005E0002D4A083A516056E02B496431884208D1BF
:1005F00029490839496841F47001274A083A51608D
:1006000049E025497831884208D1234908394968A9
:1006100041F07061204A083A51603CE01F4988422D
:1006200006D1011F096841F00F01021F116032E07D
:100630001A491431884208D11849091F096841F044
:10064000F001164A121F116025E014492831884232
:1006500008D11249091F096841F470610F4A121F3D
:10066000116018E00D493C31884208D10B49091F3F
:10067000096841F47041094A121F11600BE00749F3
:100680005031884207D10549091F096841F470219A
:10069000024A121F1160704708000240080402401D
:1006A0001AB103680B43036002E003688B430360E5
:1006B000704710B50022026847F6F0739A430C6A3F
:1006C0008B6823430C6923434C6923438C69234380
:1006D000CC6923434C6A23438C6A23431A43026048
:1006E000CB6843600B6883604B68C36010BD2DE925
:1006F000F0410246002500260020002300240027A8
:1007000091F803C00CF00F0591F803C00CF0100C29
:10071000BCF1000F03D091F802C04CEA050591F836
:1007200000C0BCF1000F31D0146800202BE04FF066
:10073000010C0CFA00F3B1F800C00CEA03069E426B
:1007400020D183004FF00F0C0CFA03F7BC4305FADD
:1007500003FC4CEA040491F803C0BCF1280F06D155
:100760004FF0010C0CFA00FCC2F814C00AE091F83A
:1007700003C0BCF1480F05D14FF0010C0CFA00FC8E
:10078000C2F810C0401C0828D1D31460B1F800C0D2
:10079000BCF1FF0F34DD546800202EE000F1080C9E
:1007A0004FF0010808FA0CF3B1F800C00CEA030698
:1007B0009E4221D183004FF00F0C0CFA03F7BC438B
:1007C00005FA03FC4CEA040491F803C0BCF1280FBD
:1007D00005D100F1080C08FA0CF8C2F8148091F861
:1007E00003C0BCF1480F07D100F1080C4FF001081D
:1007F00008FA0CF8C2F81080401C0828CED35460C8
:10080000BDE8F0810246002093680B400BB1012047
:1008100000E00020704741617047016170470000AF
:1008200070B5002100230F22C47804B3154C24684E
:1008300004F4E064C4F5E064210AC1F10403CA4091
:10084000447804FA03F184781440214309010E4CE2
:100850000678A155047804F01F050124AC40057802
:100860006D11AD0005F1E025C5F8004109E00478FF
:1008700004F01F050124AC40044D0678761145F8BC
:10088000264070BD0CED00E000E400E080E100E0F7
:1008900029B1064A52690243044B5A6104E0034AF3
:1008A00052698243014B5A617047000000100240B8
:1008B00029B1064AD2690243044BDA6104E0034AD3
:1008C000D2698243014BDA61704700000010024098
:1008D00029B1064A92690243044B9A6104E0034A33
:1008E00092698243014B9A617047000000100240F8
:1008F00021B1028842F40052028004E002884DF6E1
:10090000FF731A400280704721B1028842F0400212
:10091000028004E002884FF6BF731A4002807047DD
:1009200010B50022028802F441520B884C88234300
:100930008C882343CC8823430C8923434C8923434D
:100940008C892343CC8923431A430280838B4FF243
:10095000FF74234083830B8A038210BD10B500F01F
:1009600001F810BD0CB500200190009033480068DC
:1009700040F480303149086000BF3048006800F41E
:10098000003000900198401C0190009818B901981F
:10099000B0F5A06FF1D12948006800F4003010B123
:1009A0000120009001E0002000900098012843D130
:1009B0002348006840F0100021490860084600689C
:1009C00020F0030008600846006840F0020008605C
:1009D0001A48406819494860084640684860084617
:1009E000406840F4806048600846406820F47C100D
:1009F00048600846406840F4E810486008460068CF
:100A000040F08070086000BF0C48006800F0007083
:100A10000028F9D00948406820F0030007494860E1
:100A20000846406840F00200486000BF0348406844
:100A300000F00C000828F9D10CBD000000100240A5
:100A40000020024010B51348006840F00100114931
:100A5000086008464068104908400E49486008464A
:100A600000680E4908400B4908600846006820F4F9
:100A7000802008600846406820F4FE0048604FF47B
:100A80001F008860FFF76AFF4FF0006004490860AC
:100A900010BD0000001002400000FFF8FFFFF6FE4E
:100AA00008ED00E00548006810B193200449086390
:100AB0004FF6FB7003490880704700001C000020BF
:100AC00000000240102C01400120044908604FF64C
:100AD000F7704FF080410882704700001C00002032
:100AE00021B1028842F00102028004E002884FF640
:100AF000FE731A400280704731B1B0F8442042F4CE
:100B00000042A0F8442005E0B0F84420C2F30E02F1
:100B1000A0F8442070471AB183890B43838102E017
:100B200083898B438381704770B5002400220023A2
:100B3000058C4FF6FE7635400584028C8388048B45
:100B40004FF68F752C40B51E2C400D882C43751E1A
:100B50002A400D892A434D882A43144DA8420BD0C0
:100B6000134DA84208D0134DA84205D0124DA842FB
:100B700002D0124DA84213D14FF6F7752A404D8985
:100B80002A434FF6FB752A408D882A434FF6FF65AE
:100B90002B404FF6FF552B408D892B43CD892B439E
:100BA00083800483CD888586028470BD002C01403B
:100BB0000034014000400140004401400048014031
:100BC00070B5002400220023058C4FF6EF763540E7
:100BD0000584028C8388048B48F6FF752C404FF601
:100BE000FF452C400D884FF6FF7606EA05252C437D
:100BF0004FF6DF752A400D8906EA05152A434D8810
:100C000006EA05152A43154DA84202D0144DA84204
:100C10001DD14FF67F752A404D894FF6FF7606EAC3
:100C200005152A434FF6BF752A408D8806EA05153B
:100C30002A434FF6FF352B404FF2FF752B408D892D
:100C400006EA85052B43CD8906EA85052B4383807B
:100C50000483CD880587028470BD0000002C01400C
:100C60000034014070B5002400220023058C4FF6AB
:100C7000FF6635400584028C8388848B4FF68F7520
:100C80002C404FF6FC752C400D882C434FF6FF5539
:100C90002A400D894FF6FF7606EA05252A434D883E
:100CA00006EA05252A43154DA84202D0144DA84254
:100CB0001DD14FF2FF752A404D894FF6FF7606EAA7
:100CC00005252A434FF6FF352A408D8806EA05257B
:100CD0002A434EF6FF752B404DF6FF752B408D894C
:100CE00006EA05152B43CD8906EA05152B438380BB
:100CF0008483CD888587028470BD0000002C01406C
:100D0000003401400A46002101894FF68F731940D3
:100D100011430181704702894FF67F731A400281A7
:100D200002890A430281704782884FF68F731A4006
:100D3000828082880A438280704702894FF6F87366
:100D40001A40028102890A43028170470022028808
:100D50001D4B98420ED01D4B98420BD0B0F1804FE6
:100D600008D01B4B984205D01A4B984202D01A4B20
:100D7000984204D14FF68F731A404B881A43174B91
:100D8000984207D0164B984204D04FF6FF431A40C2
:100D9000CB881A4302808B8883850B8803850A4B96
:100DA00098420BD0094B984208D00E4B984205D080
:100DB0000D4B984202D00D4B984201D10B7A03861D
:100DC0000123838270470000002C01400034014061
:100DD0000004004000080040000C004000100040EB
:100DE0000014004000400140004401400048014020
:100DF00070B505460E460820FFF706FA0446258022
:100E00006680002060600348006844600148046018
:100E100070BD00000800002070B509480068054654
:100E200004466D6807480560628811B2228810B2D6
:100E3000012200F0B9F82046FFF715FA70BD000056
:100E40000400002008000020002004E00021034AE4
:100E50001154411CC8B20928F8DB7047C82800208B
:100E600008B501214020FFF733FD2020ADF8000038
:100E700010208DF8030003208DF802006946024817
:100E8000FFF735FC08BD00000018014008B501213E
:100E90000820FFF71DFD1C20ADF8000010208DF884
:100EA000030003208DF8020069461048FFF71FFC7D
:100EB0000220ADF8000028208DF8030069460B4899
:100EC000FFF715FCFFF7CCFF00F050FA00F04EFAE8
:100ED00000F04CFA00F0A6F800F0BCFC00F0E4FCD6
:100EE00000F0CEF9FFF7B0FF08BD0000000C014094
:100EF0004FF0E021096921F004014FF0E022116177
:100F0000C21700EB5272C2F3C702074B1A701946A0
:100F1000097801EB4102C2EBC1114FF6FF7202EA00
:100F2000C101024A118070472400002026000020E1
:100F300001460D4A12884A434FF0E0235A610022CD
:100F40009A6101221A6100BF4FF0E022106900F09F
:100F500001021AB100F48032002AF5D000224FF0CD
:100F6000E0231A619A6170472600002001460D4A6D
:100F700012784A434FF0E0235A6100229A6101221D
:100F80001A6100BF4FF0E022106900F001021AB1AF
:100F900000F48032002AF5D000224FF0E0231A61DD
:100FA0009A617047240000202DE9F04705460E465F
:100FB000174605EB4500801E1FFA80F90120C0EBA3
:100FC00046001FFA80FA002415E04FF000080DE0FB
:100FD0000AEB040082B209EB040081B23B46002018
:100FE00000F018FE08F101004FFA80F8B8F1020F86
:100FF000EEDB601C44B2032CE7DBBDE8F0870000A9
:1010000010B50748046807E0628811B2228810B260
:101010000022FFF7C9FF6468002CF5D110BD000065
:101020000400002010B508211448FFF7F4FB10203D
:10103000FFF79CFF012000F051F9432000F04EF92A
:10104000002000F04BF9012000F048F9002000F0EA
:1010500045F9002000F042F9002000F03FF900209F
:1010600000F03CF9002000F039F908210348FFF7AF
:10107000D4FB1020FFF77AFF10BD0000000C0140E8
:1010800070B50125184804681120FFF713F9FFF720
:1010900081F8632190FBF1F201FB1200401C13491F
:1010A00009680880FFF776F8632190FBF1F201FBF5
:1010B0001200401C0D49096848800EE020880B4949
:1010C00009680988884207D1608808490968498801
:1010D000884201D1002502E06468002CEED100BFF7
:1010E0000DB9FFF7CDFF70BD040000200C000020FB
:1010F00070B50548046804E0254664682846FFF793
:10110000B2F8002CF8D170BD040000200A4909682B
:10111000097949B242B2891A891C39B1064909686C
:10112000097949B242B2891A022900D170470249AD
:101130000968087100BFF9E71000002010B54820C9
:10114000FFF7D6FE00F08DF800F024FEFFF79EFEBC
:1011500000F098F9002010BD70B53948046839488E
:1011600000680079042806D0052816D0062808D083
:10117000072818D10BE06288511E2088FFF738FE3F
:1011800011E06288511C2088FFF732FE0BE0618875
:101190002288501EFFF72CFE05E061882288501C33
:1011A000FFF726FE00BF00BF2548006800882649DB
:1011B00009680988884211D121480068408822497D
:1011C00009684988884209D11E4800680068401CA7
:1011D0001C490968086000201C4908701B480078F9
:1011E000012801D1FFF718FE154804681848056862
:1011F0000AE020882988884205D160886988884269
:1012000001D1012070BD6D680D4800688542F0D1A4
:101210000B480068008801280EDB09480068008838
:10122000632809DC064800684088012804DB04487C
:1012300000684088632801DD0120E3E70020E1E742
:1012400008000020100000200C00002014000020E6
:101250000400002010B50620FFF758FFFFF77CFFC1
:1012600010BD10B501210846FFF712FB012141F620
:101270000D20FFF72DFB01210846FFF719FB10BDDC
:1012800010B508211448FFF7C6FA1020FFF76EFECC
:10129000012000F023F8432000F020F8002000F0A7
:1012A0001DF8002000F01AF85A2000F017F85A2014
:1012B00000F014F85A2000F011F85A2000F00EF84F
:1012C0005A2000F00BF808210348FFF7A6FA102077
:1012D000FFF74CFE10BD0000000C014038B504467D
:1012E0000120009000201F4948700120009031E04B
:1012F000BDF80000204020B104211B48FFF78DFA03
:1013000003E004211848FFF786FA10211648FFF77A
:1013100084FA0220FFF72AFE10211348FFF77BFA18
:101320000220FFF723FE10210F48FFF776FA022173
:101330000D48FFF767FA30B10A484078BDF8001051
:10134000084308494870BDF800004FF6FF7101EAF4
:1013500040000090BDF80000FF28C9DD1020FFF715
:1013600005FE38BDC8280020000C014010B508213A
:101370000E48FFF750FA1020FFF7F8FD0120FFF7A5
:10138000ADFF4220FFF7AAFF0020FFF7A7FF0020D4
:10139000FFF7A4FF0020FFF7A1FF08210348FFF794
:1013A0003CFA1020FFF7E2FD10BD0000000C0140E8
:1013B00008B500F08DFB0020C72340F28F120146D4
:1013C000009000F083FC002305A23721AF2000F03D
:1013D000A7FC002304A26421922000F0A1FC08BD18
:1013E000534E414B4500000053555250524953450E
:1013F0002C205552204D4F5448455246554B45528E
:101400000000000010B50820FEF7FEFE1949086034
:1014100019490860072009680880322016490968C0
:10142000488000201449096848600420FEF7ECFE5B
:10143000124908600820FEF7E7FE11490860052000
:101440000968087104200E4909680860002409E051
:10145000094A12685188084A12681288501CFFF71E
:10146000C7FC641C064800680068401EA042EFD814
:1014700010BD000008000020040000200C00002027
:101480001000002008B500F023FB0020C72340F225
:101490008F120146009000F019FC002330A2372182
:1014A000B12000F03DFC00232FA24621922000F045
:1014B00037FC002410E04FF49670FFF739FD4FF42D
:1014C0009670FFF735FD4FF49670FFF731FD4FF43E
:1014D0009670FFF72DFD641C0A2CECDB00F0F8FA87
:1014E0000020C72340F28F120146009000F0EEFB6F
:1014F000FFF788FFFFF7C4FD002320A24C219220B4
:1015000000F00EFCFFF77CFD204A1268528811B2F1
:101510001E4A1268128810B20022FFF745FD15E03E
:10152000FFF76EFD1A48007860B9FFF7A9FD174A6A
:101530001268528811B2154A1268128810B200223D
:10154000FFF732FD13480088FFF7F2FCFFF782FE39
:101550000028E5D0FFF7CCFD01E0FFF729FFFCE70D
:10156000534E414B450000005052455353205354B5
:1015700041525420425554544F4E00005552204D74
:101580004F5448455246554B455200000C00002030
:10159000140000200000002000B593B08020ADF8BA
:1015A000040018208DF8070002208DF8060001A91C
:1015B0003748FFF79CF800213648FFF7A5F9364871
:1015C000FEF7C8FF33480C300290344803901020D7
:1015D0000490342005900020069080200790002081
:1015E000089009900A900B900C9002A92A48FFF7E6
:1015F00060F84FF44040ADF834004FF48270ADF81D
:1016000036000020ADF83800ADF83A000120ADF802
:101610003C004002ADF83E000820ADF8400000203C
:10162000ADF842000720ADF844000DA91948FFF7B6
:1016300077F900211748FFF75BF901211548FFF7FB
:1016400063F91448808840F00200124988800D2018
:101650008DF8480000208DF849008DF84A000120DF
:101660008DF84B0012A8FFF7DBF80B483038006B01
:1016700020F00100084930390863342048630748E6
:10168000C863012202210448FFF70AF813B000BD25
:1016900000080140003001403000024028000020D6
:1016A0000146002201E0521C491C08780028FAD1AA
:1016B00090B27047F0B589B00024002600250027BD
:1016C0004FF48170ADF8200018208DF8230002201F
:1016D0008DF8220008A95D48FFF709F84FF400646F
:1016E00090264FF4B0750020ADF81000ADF8120050
:1016F000ADF81440ADF816008DF8180004A9544850
:10170000FFF724FB7020ADF800000120ADF80200C7
:101710000420ADF80400ADF806600220ADF8080022
:101720000020ADF80A00ADF80C00E010ADF80E0096
:1017300069464748FFF7F8F92020ADF80000ADF8FA
:10174000065069464248FFF73BFA01214048FFF73F
:10175000D3F980213E48FFF7DEFA20213C48FFF70D
:10176000E3FA05218807FFF7E8FA0021E004FFF714
:10177000C9FA40F27124022518270020ADF81000A4
:10178000ADF81200ADF81440ADF816008DF8180051
:1017900004A9A007FFF7DAFA7020ADF800000120D5
:1017A000ADF802000420ADF80400ADF806500220A8
:1017B000ADF808000020ADF80A00ADF80C00E80113
:1017C000ADF80E0069468005FFF7FAF92020ADF864
:1017D0000000ADF8067069464006FFF743FA0121A4
:1017E0008807FFF789F91C208DF81C0001208DF86F
:1017F0001D0000208DF81E0001208DF81F0007A895
:10180000FFF70EF801220821C806FFF784F91B2014
:101810008DF81C0001208DF81D0000208DF81E00A1
:1018200001208DF81F0007A8FEF7FAFF012204210E
:101830000748FFF770F901218807FFF751F90121E7
:101840000348FFF74DF909B0F0BD00000008014062
:10185000002C014010B508211248FEF7DCFF0120E2
:10186000FFF73CFD4420FFF739FD0020FFF736FD70
:101870000120FFF733FDEE20FFF730FD0020FFF7DA
:101880002DFD0020FFF72AFD0020FFF727FD002097
:10189000FFF724FD08210348FEF7BFFF1020FFF7E4
:1018A00065FB10BD000C014010B508210E48FEF785
:1018B000B2FF1020FFF75AFB0120FFF70FFD4D206C
:1018C000FFF70CFD0020FFF709FD0020FFF706FDE4
:1018D0000120FFF703FD08210348FEF79EFF1020BB
:1018E000FFF744FB10BD0000000C01402DE9F04F54
:1018F00089B0044617464CB1B4F800A08A440FFAE8
:101900008AF1B4F802A0BA440FFA8AF74FEAD30C6E
:10191000B3EBCC0F01D90CF1010C4FEAD10ACDF891
:1019200018A0DDF818A0A1EBCA0ACDF81CA05CB97C
:1019300001EB030ABAF5C87F04DBC1F5C87A1FFAC8
:101940008AF510E09DB20EE001EB030AB4F904B091
:101950008B44DA4506DBB4F804A0AAEB010A1FFAAF
:101960008AF500E09DB20022A9E002EB070ABAF175
:10197000C70F02DD09B0BDE8F08F4FEAD10A07EBCF
:10198000020B0BEB8B0E0EEBCB0B0AEB8B0ACDF89D
:1019900014A04E4EDDF814A056444FF0085A0AEB3E
:1019A000461BDDF81CA0CAF1070A0BEB8A004FF0BA
:1019B000085A0AEB461A0AF11C0ACDF80CA0DDF809
:1019C0004CA002FB0CAACDF800A000BF4FF000090C
:1019D000CA46CDF820A06AE000F0E00ACDF808A0E1
:1019E0005FEA090A09F1010B1FFA8BF90BD1DDF847
:1019F00000A09AF800A0CDF810A0DDF800A00AF130
:101A0000010ACDF800A009F00709DDF810A00AF0DE
:101A1000800ABAF1000F02D04FF0010801E04FF048
:101A20000008DDF850A0BAF1000F09D0BAF1010F9B
:101A300009D0BAF1020F0DD0BAF1030F18D110E09E
:101A400080F8008014E090F800A08AEA080A80F884
:101A500000A00DE090F800A00AEA080A80F800A0B3
:101A600006E090F800A04AEA080A80F800A000BF4B
:101A700000BF001F00F0E00ACDF804A0DDE901ABD3
:101A8000D34504D0DDF80CA00AF120000390DDF866
:101A900010A04FEA4A6A4FEA1A6ACDF810A0DDF8A2
:101AA00020A00AF1010A1FFA8AFACDF820A0DDF879
:101AB00020A0AA4590DB02F1010A1FFA8AF2DDF8A4
:101AC00048A05245FFF651AF00BF53E72800002061
:101AD00010B5002010E000210AE0002200EB800396
:101AE00003EBC003064C04EB83035A544A1C91B227
:101AF0003429F2DB421C90B2C828ECDB10BD000098
:101B0000280000202DE9FF4F82B0012001900090B5
:101B100003990598401A04B204990F98401A05B227
:101B2000002C04DA604204B24FF0FF300190002D27
:101B300004DA684205B24FF0FF300090039FDDF8F1
:101B40001080AC4231DD1FFA88F2B9B2109B0298C6
:101B500000F060F8C4EB450006B2281B40000FFA05
:101B600080FA68000FFA80FB4FF000091AE0002E9F
:101B700007DB009840440FFA80F806EB0A0006B233
:101B800002E006EB0B0006B20198384407B21FFAD8
:101B900088F2B9B2109B029800F03CF809F10100FC
:101BA0000FFA80F9A145E2DB30E01FFA88F2B9B202
:101BB000109B029800F02EF8C5EB440006B2601BA3
:101BC00040000FFA80FA60000FFA80FB4FF0000926
:101BD0001AE0002E06DB0198384407B206EB0A0033
:101BE00006B202E006EB0B0006B2009840440FFA82
:101BF00080F81FFA88F2B9B2109B029800F00AF838
:101C000009F101000FFA80F9A945E2DB06B0BDE851
:101C1000F08F00002DE9F04106461C46B1F5C87F63
:101C200001DAC82A01DBBDE8F081C810A1EBC007CA
:101C3000BDB2802747FA05F324B1012C17D0022C3E
:101C40003FD129E002EB820707EBC207DFF878C03B
:101C50000CEB87073F5C1F4302EB820C0CEBC20CC2
:101C6000DFF8648008EB8C0C0CF8007029E002EBC4
:101C7000820707EBC207DFF850C00CEB87073F5C19
:101C80005F4002EB820C0CEBC20CDFF83C8008EBEF
:101C90008C0C0CF8007014E002EB820707EBC20713
:101CA000DFF824C00CEB87073F5C1F4002EB820C7F
:101CB0000CEBC20CDFF8108008EB8C0C0CF80070F9
:101CC00000BF00BF00BFAEE7280000202DE9FC41A7
:101CD00006460F4690461C46089D43463A46314606
:101CE0000020CDE90075FFF70DFF4346224631463F
:101CF0000020CDE90045FFF705FF33463A4631465F
:101D00000020CDE90045FFF7FDFE43463A46414637
:101D10000020CDE90045FFF7F5FEBDE8FC8100009D
:101D20002DE9F04F85B0074688461446994620466F
:101D3000FFF7B6FC0490BDB24FF0000A23E014F8A0
:101D4000016B202E1BDBA6F1200000EBC0001FFA68
:101D500080FB0F485844039009210398062342460C
:101D6000CDE90109009129B20020FFF7BFFDA81DB0
:101D700085B2B5F5C87F02DB05B0BDE8F08F0AF18A
:101D800001001FFA80FA04988245D8DB00BFF3E710
:101D9000A41D000810B5FFF7FFFBFFF78BFCFFF752
:101DA00097FE10BD00000000000000000000202091
:101DB0002020200020000050500000000000000003
:101DC0000050F850F8500000002078A07028F02053
:101DD0000000C8D02020205898000020502040A8A3
:101DE00098700000202020000000000000204080AB
:101DF000808040200000201008080810200000000B
:101E0000A870F870A8000000002020F82020000032
:101E100000000000002020400000000000700000D2
:101E20000000000000000000002000001010202032
:101E30002040400000708888A888887000006020DA
:101E400020202020700000708808708080F800003A
:101E500070880830088870000010305090F810101A
:101E60000000F08080F00888700000304080B0C82A
:101E700088700000F808102040808000007088887A
:101E8000708888700000708888780888700000006A
:101E90003030003030000000003030003030600062
:101EA000001020408040201000000000F800F800E2
:101EB000000000402010081020400000708808102A
:101EC00020002000007088B8A8B8807800007088D2
:101ED0008888F888880000F08888F08888F00000FA
:101EE000708880808088700000F08888888888F0FA
:101EF0000000F88080F08080F80000F88080F0809A
:101F000080800000708880B8888870000088888889
:101F1000F8888888000070202020202070000008A9
:101F200008080888887000008890A0C0A0908800E9
:101F300000808080808080F8000088D8A888888809
:101F400088000088C8A898888888000070888888D9
:101F50008888700000F08888F08080800000708899
:101F60008888A890680000F08888F0A09088000019
:101F7000708880700888700000F8202020202020C1
:101F80000000888888888888700000888888888809
:101F90005020000088888888A8A870000088885091
:101FA000205088880000888888502020200000F871
:101FB0000810204080F80000704040404040700011
:101FC0000040402020201010000070101010101051
:101FD00070000020508000000000000000000000A1
:101FE0000000F800002020100000000000000000A9
:101FF00070087898680000008080F08888F0000001
:102000000000788080807800000008087888887850
:10201000000000007088F080700000304040604098
:102020004040000000007888780870000000000040
:1020300000000000000000000000000000000000A0
:102040000000000000000000000000000000000090
:102050000000000000000000000000000000000080
:102060000000000000000000000000000000000070
:102070000000000000000000000000000000000060
:102080000000000000000000000000000000000050
:102090000000000000000000000000000000000040
:1020A0000000000000000000000000000000000030
:1020B0000000000000000000000000000000000020
:1020C0000000000000000000000000000000000010
:1020D0000000000000000000000000000000000000
:1020E00000000000000000000000000000000000F0
:1020F00000000000000000000000000000000000E0
:10210000000000002421000800000020280000003A
:10211000280100084C21000828000020F02F0000B2
:1021200044010008E8030000000000000000000077
:10213000000000000000000000000000000000009F
:0C21400000000000000000000000000093
:04000005080000ED02
:00000001FF
