:020000040800F2
:1000000038300020C9010008D1010008D3010008E0
:10001000D5010008D7010008D90100080000000040
:10002000000000000000000000000000DB010008EC
:10003000DD01000800000000DF010008E101000808
:10004000E3010008E3010008E3010008E301000800
:10005000E3010008E3010008E3010008E3010008F0
:10006000E3010008E3010008E3010008E3010008E0
:10007000E30100086D060008E3010008E301000841
:10008000E3010008E3010008E3010008E3010008C0
:10009000E3010008E3010008E3010008E3010008B0
:1000A000E3010008E3010008E30100085D0C00081B
:1000B000810C0008E3010008E3010008E3010008E7
:1000C000E3010008E3010008E3010008E301000880
:1000D000E3010008E3010008E3010008E301000870
:1000E000E3010008E3010008E301000800F002F862
:1000F00000F040F80AA090E8000C82448344AAF182
:100100000107DA4501D100F035F8AFF2090EBAE87F
:100110000F0013F0010F18BFFB1A43F0010318473B
:100120008C240000AC240000103A24BF78C878C1A9
:10013000FAD8520724BF30C830C144BF04680C60ED
:10014000704700000023002400250026103A28BF35
:1001500078C1FBD8520728BF30C148BF0B60704739
:100160001FB59DE8030000F0E3F800F0B8F81FBDEC
:1001700010B510BD00F038F91146FFF7F1FF01F09E
:1001800069F900F056F903B4FFF7F2FF03BC00F081
:1001900083F900000B49D1F800C04A685CF8043BC1
:1001A0001068184442F8040B8C4528BFA1F1DC0C00
:1001B0008A4228BFA1F1DC02C1F800C04A6020F0E9
:1001C00000407047CC290020094880470948004773
:1001D000FEE7FEE7FEE7FEE7FEE7FEE7FEE7FEE7F7
:1001E000FEE7FEE704480549054A064B7047000054
:1001F000FD0B0008ED000008382A002038300020F0
:10020000382C0020382C002070B5064600F074F819
:10021000056806F10B0020F00704B4429CBF0020E3
:1002200070BD2B466A68BAB11068A04210D304F1C1
:10023000080188423CBF5068586007D351681019C4
:1002400041601168091B016058601460101D70BD89
:1002500013465268002AE7D12146284600F054F898
:100260000028DED170BD70B50446051F00F044F8CB
:100270000068002C14BF446870BD002C18BFAC424D
:100280003CBF20466468F8D301680A18AA4218BF28
:10029000456003D12A680546114401602868411968
:1002A000A1421CBF6C6070BD616869602168084430
:1002B000286070BD0B4910B5A1F17C020A4CC2E95F
:1002C0003712372106E000EB104342F82130074B8C
:1002D00000FB03400B1EA1F10101F4DC10BD012065
:1002E000E8E700006C290020E119D666CD0D010079
:1002F000704770477047000000487047DC290020B5
:10030000704770477047704738B504460A4600206A
:100310006946AFF30080002808BF38BD0246009947
:10032000204600F03FF8012038BD012000F054B80D
:10033000F8B5AFF30080054600200C46102000BF42
:100340000646A819A0420DD9324669460020AFF3EF
:100350000080070008BF00F03FF80098A04218BFD7
:100360000546C419FFF7C8FF05600746F01D20F0D9
:1003700007004619284600F00AF8B44208BFF8BD45
:10038000A21B31463868BDE8F84000F00BB80021E8
:100390000160C0E9011070471020704700487047A5
:1003A000D4290020034640688C46002818BF8842A4
:1003B0003CBF03464068F8D318681844884207D009
:1003C0000CF1030020F00700001D411A521A0146EB
:1003D000081D0A60FFF747BF10B500F035F8BDE80B
:1003E000104000F02CB870477546FFF7D7FFAE46B7
:1003F00005006946534620F00700854618B020B531
:10040000FFF7F0FEBDE820404FF000064FF0000778
:100410004FF000084FF0000B21F00701AC46ACE8AC
:10042000C009ACE8C009ACE8C009ACE8C0098D4619
:1004300070470446AFF300802046FFF7A4FE002873
:1004400001D000F029B8704710B5012805D000216F
:1004500003A000F027F8012010BD09A1F8E7000073
:1004600053494752544D454D3A204F7574206F669D
:100470002068656170206D656D6F72790000000005
:100480003A2048656170206D656D6F727920636FE9
:10049000727275707465640001491820ABBEFEE786
:1004A0002600020070B505460C460A2000E06D1CCF
:1004B00000F011F835B128780028F8D102E0641C6A
:1004C00000F009F814B120780028F8D1BDE8704098
:1004D0000A20AFF3008008B569468DF800000320BC
:1004E000ABBE08BD21B1826842F00102826003E028
:1004F000826822F001028260704721B1826842F472
:100500008072826003E0826822F4807282607047A9
:10051000014600208A6802F004020AB1012000E0CE
:1005200000207047014600208A6802F008020AB1E4
:10053000012000E00020704730B502460020002373
:1005400050680F4C20400D790C6844EA0524204384
:10055000506090680B4C2040D1E902542C434D79F7
:1005600044EA450420439060D06A20F470000C7C7B
:10057000641EE4B2234340EA0350D06230BD000061
:10058000FFFEF0FFFDF7F1FFF0B504460D46002039
:100590000021092D11DDE068A5F10A0606EB4607EA
:1005A000072606FA07F18843A5F10A0606EB460678
:1005B00003FA06F10843E0600CE0206905EB45070B
:1005C000072606FA07F1884305EB450603FA06F10C
:1005D00008432061072A0FDA606B561E06EB860778
:1005E0001F2606FA07F18843561E06EB860605FA13
:1005F00006F10843606322E00D2A0FDA206BD61F54
:1006000006EB86071F2606FA07F18843D61F06EB7E
:10061000860605FA06F10843206310E0E06AA2F1BD
:100620000D0606EB86071F2606FA07F18843A2F19E
:100630000D0606EB860605FA06F10843E062F0BDFA
:10064000816841F008018160704721B1826842F4FD
:10065000A002826003E0826822F4A00282607047F8
:10066000816841F004018160704700004FF4007020
:100670001549486092200863342048631348006895
:10068000401C124908600846006803281AD100205F
:1006900008600F480088401C0D4908800846008803
:1006A000C8280AD100200B49086009490880074979
:1006B000086009480449C86304E00348C06B34304B
:1006C0000149C8637047000000000240200000207C
:1006D000180000201C0000204400002021B1026806
:1006E00042F00102026004E002684FF6FE731A4015
:1006F0000260704701684FF6FE72114001600021F0
:10070000016041608160C1604B49884208D14A491B
:100710000839496841F00F01474A083A51608AE0B8
:1007200045491431884208D143490839496841F0A4
:10073000F001414A083A51607DE03F492831884242
:1007400008D13D490839496841F470613A4A083A8C
:10075000516070E038493C31884208D13649083947
:10076000496841F47041344A083A516063E03249C3
:100770005031884208D130490839496841F4702124
:100780002D4A083A516056E02B496431884208D11D
:1007900029490839496841F47001274A083A5160EB
:1007A00049E025497831884208D123490839496808
:1007B00041F07061204A083A51603CE01F4988428C
:1007C00006D1011F096841F00F01021F116032E0DC
:1007D0001A491431884208D11849091F096841F0A3
:1007E000F001164A121F116025E014492831884291
:1007F00008D11249091F096841F470610F4A121F9C
:10080000116018E00D493C31884208D10B49091F9D
:10081000096841F47041094A121F11600BE0074951
:100820005031884207D10549091F096841F47021F8
:10083000024A121F1160704708000240080402407B
:100840001AB103680B43036002E003688B43036043
:10085000704710B50022026847F6F0739A430C6A9D
:100860008B6823430C6923434C6923438C692343DE
:10087000CC6923434C6A23438C6A23431A430260A6
:10088000CB6843600B6883604B68C36010BD2DE983
:10089000F041024600250026002000230024002706
:1008A00091F803C00CF00F0591F803C00CF0100C88
:1008B000BCF1000F03D091F802C04CEA050591F895
:1008C00000C0BCF1000F31D0146800202BE04FF0C5
:1008D000010C0CFA00F3B1F800C00CEA03069E42CA
:1008E00020D183004FF00F0C0CFA03F7BC4305FA3C
:1008F00003FC4CEA040491F803C0BCF1280F06D1B4
:100900004FF0010C0CFA00FCC2F814C00AE091F898
:1009100003C0BCF1480F05D14FF0010C0CFA00FCEC
:10092000C2F810C0401C0828D1D31460B1F800C030
:10093000BCF1FF0F34DD546800202EE000F1080CFC
:100940004FF0010808FA0CF3B1F800C00CEA0306F6
:100950009E4221D183004FF00F0C0CFA03F7BC43E9
:1009600005FA03FC4CEA040491F803C0BCF1280F1B
:1009700005D100F1080C08FA0CF8C2F8148091F8BF
:1009800003C0BCF1480F07D100F1080C4FF001087B
:1009900008FA0CF8C2F81080401C0828CED3546026
:1009A000BDE8F0810246002093680B400BB10120A6
:1009B00000E000207047416170470161704700000E
:1009C00070B5002100230F22C47804B3154C2468AD
:1009D00004F4E064C4F5E064210AC1F10403CA40F0
:1009E000447804FA03F184781440214309010E4C41
:1009F0000678A155047804F01F050124AC40057861
:100A00006D11AD0005F1E025C5F8004109E004785D
:100A100004F01F050124AC40044D0678761145F81A
:100A2000264070BD0CED00E000E400E080E100E055
:100A300001460020034A506820F4404008435060BB
:100A4000704700000010024029B1064A5269024373
:100A5000044B5A6104E0034A52698243014B5A61D4
:100A6000704700000010024029B1064AD2690243D3
:100A7000044BDA6104E0034AD2698243014BDA6134
:100A8000704700000010024029B1064A92690243F3
:100A9000044B9A6104E0034A92698243014B9A61D4
:100AA000704700000010024021B1028842F4005259
:100AB000028004E002884DF6FF731A4002807047FE
:100AC00021B1028842F04002028004E002884FF621
:100AD000BF731A400280704710B50022028802F4EA
:100AE00041520B884C8823438C882343CC88234372
:100AF0000C8923434C8923438C892343CC8923438A
:100B00001A430280838B4FF2FF74234083830B8A46
:100B1000038210BD10B500F001F810BD0CB5002027
:100B2000019000903348006840F4803031490860FB
:100B300000BF3048006800F4003000900198401C6D
:100B40000190009818B90198B0F5A06FF1D129482B
:100B5000006800F4003010B10120009001E0002096
:100B600000900098012843D12348006840F010000D
:100B7000214908600846006820F003000860084624
:100B8000006840F0020008601A484068194948604F
:100B90000846406848600846406840F48060486005
:100BA0000846406820F47C1048600846406840F4DD
:100BB000E81048600846006840F08070086000BF98
:100BC0000C48006800F000700028F9D0094840681F
:100BD00020F00300074948600846406840F00200E2
:100BE000486000BF0348406800F00C000828F9D1B5
:100BF0000CBD0000001002400020024010B5134858
:100C0000006840F00100114908600846406810493A
:100C100008400E494860084600680E4908400B49E4
:100C200008600846006820F4802008600846406894
:100C300020F4FE0048604FF41F008860FFF76AFF51
:100C40004FF000600449086010BD00000010024031
:100C50000000FFF8FFFFF6FE08ED00E00548006821
:100C600010B19320044908634FF6FB7003490880D4
:100C7000704700001C00002000000240102C0140C2
:100C80000120044908604FF6F7704FF08041088258
:100C9000704700001C00002021B1028842F00102D0
:100CA000028004E002884FF6FE731A40028070470B
:100CB00031B1B0F8442042F40042A0F8442005E0ED
:100CC000B0F84420C2F30E02A0F8442070471AB1D5
:100CD00083890B43838102E083898B43838170473F
:100CE00070B5002400220023058C4FF6FE763540B7
:100CF0000584028C8388048B4FF68F752C40B51EBB
:100D00002C400D882C43751E2A400D892A434D889E
:100D10002A43144DA8420BD0134DA84208D0134DBE
:100D2000A84205D0124DA84202D0124DA84213D1BC
:100D30004FF6F7752A404D892A434FF6FB752A4036
:100D40008D882A434FF6FF652B404FF6FF552B4009
:100D50008D892B43CD892B4383800483CD88858661
:100D6000028470BD002C014000340140004001406D
:100D7000004401400048014070B5002400220023D7
:100D8000058C4FF6EF7635400584028C8388048B02
:100D900048F6FF752C404FF6FF452C400D884FF666
:100DA000FF7606EA05252C434FF6DF752A400D89AC
:100DB00006EA05152A434D8806EA05152A43154D0E
:100DC000A84202D0144DA8421DD14FF67F752A408B
:100DD0004D894FF6FF7606EA05152A434FF6BF7593
:100DE0002A408D8806EA05152A434FF6FF352B4029
:100DF0004FF2FF752B408D8906EA85052B43CD897F
:100E000006EA85052B4383800483CD880587028409
:100E100070BD0000002C01400034014070B500247A
:100E200000220023058C4FF6FF6635400584028CB6
:100E30008388848B4FF68F752C404FF6FC752C40C1
:100E40000D882C434FF6FF552A400D894FF6FF764B
:100E500006EA05252A434D8806EA05252A43154D4D
:100E6000A84202D0144DA8421DD14FF2FF752A406E
:100E70004D894FF6FF7606EA05252A434FF6FF35E2
:100E80002A408D8806EA05252A434EF6FF752B4039
:100E90004DF6FF752B408D8906EA05152B43CD894C
:100EA00006EA05152B4383808483CD8885870284D9
:100EB00070BD0000002C0140003401400A460021B2
:100EC00001894FF68F7319401143018170470289E0
:100ED0004FF67F731A40028102890A4302817047EC
:100EE00082884FF68F731A40828082880A438280FC
:100EF000704702894FF6F8731A40028102890A434B
:100F000002817047002202881D4B98420ED01D4B73
:100F100098420BD0B0F1804F08D01B4B984205D0BF
:100F20001A4B984202D01A4B984204D14FF68F7355
:100F30001A404B881A43174B984207D0164B9842D9
:100F400004D04FF6FF431A40CB881A4302808B88A7
:100F500083850B8803850A4B98420BD0094B984236
:100F600008D00E4B984205D00D4B984202D00D4B45
:100F7000984201D10B7A03860123838270470000D7
:100F8000002C0140003401400004004000080040F3
:100F9000000C0040001000400014004000400140E0
:100FA000004401400048014000B587B001214FF4E2
:100FB0000170FFF769FD4FF44040FFF739FD042051
:100FC000ADF8180000208DF81B0006A91D48FFF79A
:100FD0005EFC002001908DF8080001208DF80900CA
:100FE0004FF4602003900020049001208DF814003D
:100FF00001A91548FFF7A0FA072301220221124890
:10100000FFF7C2FA01211048FFF777FA01210E48D5
:10101000FFF768FA0C48FFF713FB00BF0A48FFF719
:1010200081FA0028FAD10848FFF71AFB00BF0648EA
:10103000FFF76EFA0028FAD101210348FFF705FBFC
:1010400007B000BD0008014000240140002100203D
:10105000002208E0054B198801F00F0101EB001395
:1010600098B2531C9AB2042AF4DB70474200002065
:1010700010B5FFF799FF00F0C1F810BD70B5054637
:101080000E460820FFF7C0F8044625806680002041
:1010900060600348006844600148046070BD00005F
:1010A0000800002010B50848046800684068064938
:1010B0000860628811B2228810B2012200F0CEF8D6
:1010C0002046FFF7D0F810BD04000020002004E007
:1010D0000021034A1154411CC8B20928F8DB7047AB
:1010E000E428002008B501210820FFF7CDFCE0200E
:1010F000ADF8000010208DF8030003208DF80200E9
:1011000069460F48FFF7C3FB1020ADF80000282008
:101110008DF8030069460A48FFF7B9FB00F012FB9F
:1011200000F010FB00F00EFB00F0D2F800F094FD90
:1011300000F0BCFD00F034FAFFF7C8FF08BD000066
:10114000000C01404FF0E021096921F004014FF04B
:10115000E0221161C21700EB5272C2F3C702074BC3
:101160001A701946097801EB4102C2EBC1114FF622
:10117000FF7202EAC101024A118070473E0000205E
:101180004000002001460D4A12884A434FF0E023F8
:101190005A6100229A6101221A6100BF4FF0E022D9
:1011A000106900F001021AB100F48032002AF5D073
:1011B00000224FF0E0231A619A617047400000203E
:1011C00001460D4A12784A434FF0E0235A6100224B
:1011D0009A6101221A6100BF4FF0E022106900F00D
:1011E00001021AB100F48032002AF5D000224FF03B
:1011F000E0231A619A6170473E00002000B58BB071
:1012000001210846FFF720FC1148FFF773FA114847
:1012100000901148019000200290022003900020CD
:10122000049005904FF48070069080000790202075
:1012300008900002099000200A9069460448FFF7D0
:1012400008FB01210248FFF749FA0BB000BD00007E
:10125000080002404C240140420000202DE9F047E4
:1012600006460F46904606EB46004000401F1FFA18
:1012700080F90320C0EB87001FFA80FA002411E0F8
:1012800000250BE00AEB050082B209EB040081B2F5
:101290004346002000F0F4FE681C45B2042DF1DB4B
:1012A000601C44B2062CEBDBBDE8F08710B50748A4
:1012B000046807E0628811B2228810B20022FFF7AA
:1012C000CDFF6468002CF5D110BD000004000020A3
:1012D00010B540211448FFF76EFB1020FFF770FF98
:1012E000012000F0E7F9432000F0E4F9002000F0CD
:1012F000E1F9012000F0DEF9002000F0DBF9002028
:1013000000F0D8F9002000F0D5F9002000F0D2F963
:10131000002000F0CFF940210348FFF74EFB1020DA
:10132000FFF74EFF10BD0000000C014070B5012515
:101330001B480468FFF78AFE0646FEF7BBFFFEF770
:1013400029FF312190FBF1F201FB1200401C1549ED
:1013500009680880FEF71EFF312190FBF1F201FBC6
:101360001200401C0F49096848800EE020880D4992
:1013700009680988884207D160880A49096849884C
:10138000884201D1002502E06468002CEED100BF44
:101390000DB9FFF7CBFF01200349087070BD0000B5
:1013A000040000200C0000201400002070B5054847
:1013B000046804E0254664682846FEF754FF002CC4
:1013C000F8D170BD0400002010B5FFF77FFE00F0DB
:1013D00015F90D48C0780C49097940EA01200B49FC
:1013E000088000240BE00A48015D0120884007497D
:1013F0000988084008B9204610BD601CC4B2102CF2
:10140000F1DB0020F8E70000E42800202A0000209B
:101410002E0000200E490968097949B242B2891AA2
:10142000891C39B10A490968097949B242B2891A55
:10143000022900D17047042805D0062803D00528CA
:1014400001D0072802D102490968087100BFF1E7FD
:101450001000002010B54820FFF774FE00F091F84E
:1014600000F0CEFEFFF704FEFFF73CFE00F0FAF9B5
:10147000002010BD70B5394804683948006800790B
:10148000042806D0052816D0062808D0072818D129
:101490000BE06288511E2088FFF7F0FD11E06288A2
:1014A000511C2088FFF7EAFD0BE061882288501E5E
:1014B000FFF7E4FD05E061882288501CFFF7DEFDA0
:1014C00000BF00BF254800680088264909680988D0
:1014D000884211D12148006840882249096849881A
:1014E000884209D11E4800680068401C1C490968F0
:1014F000086000201C4908701B480078012801D1B1
:10150000FFF7D0FD15480468184805680AE02088F0
:101510002988884205D160886988884201D10120E4
:1015200070BD6D680D4800688542F0D10B480068B9
:10153000008801280EDB094800680088312809DC92
:10154000064800684088012804DB04480068408899
:10155000312801DD0120E3E70020E1E70800002059
:10156000100000200C0000201400002004000020C7
:1015700010B5FFF729FF0446FFF74CFFFFF77AFF8E
:1015800010BD10B501210846FFF75EFA012141F6B2
:101590000D20FFF779FA01210846FFF765FA10BD23
:1015A00010B540211448FFF706FA1020FFF708FE97
:1015B000012000F07FF8432000F07CF8002000F0CC
:1015C00079F8002000F076F85A2000F073F85A20DD
:1015D00000F070F85A2000F06DF85A2000F06AF818
:1015E0005A2000F067F840210348FFF7E6F9102081
:1015F000FFF7E6FD10BD0000000C01401CB5012006
:1016000001900020009040212748FFF7D4F9274996
:10161000087800F04FF82549487800F04BF8022090
:10162000009037E00120019028E080211E48FFF75C
:10163000C4F90220FFF7C4FD80211B48FFF7BBF966
:101640000220FFF7BDFD80211748FFF7B6F91021F2
:101650001548FFF7A7F950B115489DF80010405CF8
:10166000BDF80410084312499DF800208854BDF8C5
:1016700004004FF6FF7101EA40000190BDF804003C
:10168000FF28D2DD1020FFF79BFD9DF80000401CD5
:10169000C0B200909DF800000928C3DB4021024839
:1016A000FFF78BF91CBD0000000C01402C0000204E
:1016B000E428002038B504460120009000201F498E
:1016C00048700120009031E0BDF80000204020B1BA
:1016D00020211B48FFF771F903E020211848FFF78C
:1016E0006AF980211648FFF768F90220FFF768FDC4
:1016F00080211348FFF75FF90220FFF761FD802189
:101700000F48FFF75AF910210D48FFF74BF930B198
:101710000A484078BDF80010084308494870BDF8F1
:1017200000004FF6FF7101EA40000090BDF8000094
:10173000FF28C9DD1020FFF743FD38BDE428002055
:10174000000C014010B540210E48FFF734F910207D
:10175000FFF736FD0120FFF7ADFF4220FFF7AAFF9C
:101760000020FFF7A7FF0020FFF7A4FF0020FFF7EE
:10177000A1FF40210348FFF720F91020FFF720FDCB
:1017800010BD0000000C014008B500F0A3FB0020D4
:10179000C72340F28F120146009000F0CDFC0023D9
:1017A00009A24921A02000F0F1FC022000900B4882
:1017B00000680068001F0A4901EB400200235A211B
:1017C000C52000F029FC08BD594F55522046494E0E
:1017D000414C2053434F52450000000010000020B0
:1017E0007025000810B50820FEF70EFD19490860A5
:1017F00019490860042009680880192016490968F9
:10180000488000201449096848600420FEF7FCFC69
:10181000124908600820FEF7F7FC1149086005200E
:101820000968087104200E4909680860002409E06D
:10183000094A12685188084A12681288501CFFF73A
:101840001DFC641C064800680068401EA042EFD8DA
:1018500010BD000008000020040000200C00002043
:101860001000002008B500F035FB0020C72340F22F
:101870008F120146009000F05FFC002338A2462141
:10188000B92000F083FC002337A25521952000F0F9
:101890007DFC00BFFFF798FD0928FBD100F01AFB83
:1018A0000020C8234FF496720146009000F044FCDB
:1018B000002332A246214FF4A97000F067FCFFF725
:1018C00091FFFFF733FDFFF7F1FC2E4A12685288B3
:1018D00011B22C4A1268128810B20022FFF7BEFC27
:1018E000002329A2552140F25B1000F04FFC2DE0AF
:1018F000FFF7DCFC25480078D8B9FFF717FD214A2F
:101900001268528811B21F4A1268128810B200225F
:10191000FFF7A4FC022000901D4800680068001F2B
:101920001C4901EB40020023552140F25B1000F0FE
:1019300073FB174909680988091F01EB4101164A21
:101940001288A2EB410188B2FFF71CFCFFF710FEE2
:101950000028CDD0FFF72AFDFFF716FF00BFFEE7F6
:10196000534E414B450000005052455353205354B1
:1019700041525420425554544F4E000053434F524D
:10198000450000000C000020303000001400002052
:1019900010000020702500080000002000B593B062
:1019A0008020ADF8040018208DF8070002208DF883
:1019B000060001A93748FEF76AFF00213648FFF705
:1019C0007FF83648FEF796FE33480C3002903448D4
:1019D0000390102004903420059000200690802071
:1019E00007900020089009900A900B900C9002A993
:1019F0002A48FEF72EFF4FF44040ADF834004FF474
:101A00008270ADF836000020ADF83800ADF83A002D
:101A10000120ADF83C004002ADF83E000820ADF8D2
:101A200040000020ADF842000720ADF844000DA9A9
:101A30001948FFF751F800211748FFF735F8012141
:101A40001548FFF73DF81448808840F0020012491D
:101A500088800D208DF8480000208DF849008DF811
:101A60004A0001208DF84B0012A8FEF7A9FF0B4891
:101A70003038006B20F00100084930390863342009
:101A800048630748C863012202210448FEF7D8FED4
:101A900013B000BD0008014000300140300002409A
:101AA000440000200146002201E0521C491C087835
:101AB0000028FAD190B27047F0B589B00024002612
:101AC000002500274FF48170ADF8200018208DF814
:101AD000230002208DF8220008A95D48FEF7D7FEFA
:101AE0004FF4006490264FF4B0750020ADF810005C
:101AF000ADF81200ADF81440ADF816008DF81800DE
:101B000004A95448FFF7FEF97020ADF80000012049
:101B1000ADF802000420ADF80400ADF80660022024
:101B2000ADF808000020ADF80A00ADF80C00E01098
:101B3000ADF80E0069464748FFF7D2F82020ADF80F
:101B40000000ADF8065069464248FFF715F901213B
:101B50004048FFF7ADF880213E48FFF7B8F9202153
:101B60003C48FFF7BDF905218807FFF7C2F90021BE
:101B7000E004FFF7A3F940F27124022518270020A2
:101B8000ADF81000ADF81200ADF81440ADF8160035
:101B90008DF8180004A9A007FFF7B4F97020ADF87C
:101BA00000000120ADF802000420ADF80400ADF8FB
:101BB00006500220ADF808000020ADF80A00ADF88C
:101BC0000C00E801ADF80E0069468005FFF7D4F877
:101BD0002020ADF80000ADF8067069464006FFF71A
:101BE0001DF901218807FFF763F81C208DF81C0000
:101BF00001208DF81D0000208DF81E0001208DF8B9
:101C00001F0007A8FEF7DCFE01220821C806FFF727
:101C10005EF81B208DF81C0001208DF81D000020AF
:101C20008DF81E0001208DF81F0007A8FEF7C8FEE2
:101C3000012204210748FFF74AF801218807FFF72E
:101C40002BF801210348FFF727F809B0F0BD000089
:101C500000080140002C014010B540211248FEF759
:101C6000AAFE0120FFF726FD4420FFF723FD0020F8
:101C7000FFF720FD0120FFF71DFDEE20FFF71AFD05
:101C80000020FFF717FD0020FFF714FD0020FFF7ED
:101C900011FD0020FFF70EFD40210348FEF78DFEE9
:101CA0001020FFF78DFA10BD000C014010B5402147
:101CB0000E48FEF780FE1020FFF782FA0120FFF7A2
:101CC000F9FC4D20FFF7F6FC0020FFF7F3FC0020A5
:101CD000FFF7F0FC0120FFF7EDFC40210348FEF781
:101CE0006CFE1020FFF76CFA10BD0000000C0140E4
:101CF0002DE9F04F89B0044617464CB1B4F800A066
:101D00008A440FFA8AF1B4F802A0BA440FFA8AF7AB
:101D10004FEAD30CB3EBCC0F01D90CF1010C4FEA15
:101D2000D10ACDF818A0DDF818A0A1EBCA0ACDF8A9
:101D30001CA05CB901EB030ABAF5C87F04DBC1F54E
:101D4000C87A1FFA8AF510E09DB20EE001EB030A93
:101D5000B4F904B08B44DA4506DBB4F804A0AAEB6E
:101D6000010A1FFA8AF500E09DB20022A9E002EB09
:101D7000070ABAF1C70F02DD09B0BDE8F08F4FEADC
:101D8000D10A07EB020B0BEB8B0E0EEBCB0B0AEB26
:101D90008B0ACDF814A04E4EDDF814A056444FF037
:101DA000085A0AEB461BDDF81CA0CAF1070A0BEB28
:101DB0008A004FF0085A0AEB461A0AF11C0ACDF8BD
:101DC0000CA0DDF84CA002FB0CAACDF800A000BFCF
:101DD0004FF00009CA46CDF820A06AE000F0E00A02
:101DE000CDF808A05FEA090A09F1010B1FFA8BF987
:101DF0000BD1DDF800A09AF800A0CDF810A0DDF816
:101E000000A00AF1010ACDF800A009F00709DDF8E9
:101E100010A00AF0800ABAF1000F02D04FF00108BA
:101E200001E04FF00008DDF850A0BAF1000F09D032
:101E3000BAF1010F09D0BAF1020F0DD0BAF1030FB8
:101E400018D110E080F8008014E090F800A08AEA31
:101E5000080A80F800A00DE090F800A00AEA080A3D
:101E600080F800A006E090F800A04AEA080A80F88E
:101E700000A000BF00BF001F00F0E00ACDF804A0E2
:101E8000DDE901ABD34504D0DDF80CA00AF1200058
:101E90000390DDF810A04FEA4A6A4FEA1A6ACDF8BB
:101EA00010A0DDF820A00AF1010A1FFA8AFACDF885
:101EB00020A0DDF820A0AA4590DB02F1010A1FFA5C
:101EC0008AF2DDF848A05245FFF651AF00BF53E754
:101ED0004400002010B5002010E000210AE000229C
:101EE00000EB800303EBC003064C04EB83035A545E
:101EF0004A1C91B23429F2DB421C90B2C828ECDBB8
:101F000010BD0000440000202DE9FF4F82B00120E9
:101F10000190009003990598401A04B204990F9813
:101F2000401A05B2002C04DA604204B24FF0FF30D0
:101F30000190002D04DA684205B24FF0FF300090A6
:101F4000039FDDF81080AC4231DD1FFA88F2B9B290
:101F5000109B029800F094F8C4EB450006B2281BD1
:101F600040000FFA80FA68000FFA80FB4FF000097A
:101F70001AE0002E07DB009840440FFA80F806EBC9
:101F80000A0006B202E006EB0B0006B201983844E4
:101F900007B21FFA88F2B9B2109B029800F070F8ED
:101FA00009F101000FFA80F9A145E2DB30E01FFAE8
:101FB00088F2B9B2109B029800F062F8C5EB4400B9
:101FC00006B2601B40000FFA80FA60000FFA80FB37
:101FD0004FF000091AE0002E06DB0198384407B2E2
:101FE00006EB0A0006B202E006EB0B0006B2009810
:101FF00040440FFA80F81FFA88F2B9B2109B029899
:1020000000F03EF809F101000FFA80F9A945E2DB82
:1020100006B0BDE8F08F00002DE9FF4F0746884667
:1020200014469946BDB24FF0000A22E014F8016B45
:10203000202E1ADBA6F1200000EBC0001FFA80FB67
:102040000E48584403900921039806234246CDE9DF
:102050000109009129B20020FFF74AFEA81D85B2B0
:10206000B5F5C87F01DBBDE8FF8F0AF101001FFA5B
:1020700080FA0D988245D9DB00BFF4E710220008F2
:102080002DE9F04106461C46B1F5C87F01DAC82AA1
:1020900001DBBDE8F081C810A1EBC007BDB280270D
:1020A00047FA05F324B1012C17D0022C3FD129E0C7
:1020B00002EB820707EBC207DFF878C00CEB87075B
:1020C0003F5C1F4302EB820C0CEBC20CDFF8648018
:1020D00008EB8C0C0CF8007029E002EB820707EB90
:1020E000C207DFF850C00CEB87073F5C5F4002EB94
:1020F000820C0CEBC20CDFF83C8008EB8C0C0CF86B
:10210000007014E002EB820707EBC207DFF824C07F
:102110000CEB87073F5C1F4002EB820C0CEBC20C00
:10212000DFF8108008EB8C0C0CF8007000BF00BFCB
:1021300000BFAEE7440000202DE9FC4106460F46F3
:1021400090461C46089D43463A4631460020CDE95C
:102150000075FFF7D9FE4346224631460020CDE9FF
:102160000045FFF7D1FE33463A4631460020CDE91F
:102170000045FFF7C9FE43463A4641460020CDE9F7
:102180000045FFF7C1FEBDE8FC8100002DE9F04FDE
:1021900085B007468846144699462046FFF782FCDC
:1021A0000490BDB24FF0000A23E014F8016B202E1A
:1021B0001BDBA6F1200000EBC0001FFA80FB0F48DC
:1021C000584403900921039806234246CDE90109AA
:1021D000009129B20020FFF78BFDA81D85B2B5F54F
:1021E000C87F02DB05B0BDE8F08F0AF101001FFADD
:1021F00080FA04988245D8DB00BFF3E7102200087C
:1022000010B5FFF7CBFBFFF757FCFFF763FE10BDE0
:10221000000000000000000000002020202020001E
:102220002000005050000000000000000050F85056
:10223000F8500000002078A07028F0200000C8D0DE
:102240002020205898000020502040A898700000BE
:1022500020202000000000000020408080804020DE
:10226000000020100808081020000000A870F87076
:10227000A8000000002020F820200000000000003E
:10228000002020400000000000700000000000005E
:10229000000000000020000010102020204040001E
:1022A00000708888A8888870000060202020202086
:1022B000700000708808708080F800007088083016
:1022C000088870000010305090F810100000F08066
:1022D00080F00888700000304080B0C8887000002E
:1022E000F80810204080800000708888708888700E
:1022F0000000708888780888700000003030003056
:10230000300000000030300030306000001020400D
:102310008040201000000000F800F800000000409D
:1023200020100810204000007088081020002000B5
:10233000007088B8A8B88078000070888888F8880D
:10234000880000F08888F08888F00000708880801D
:102350008088700000F08888888888F00000F88005
:1023600080F08080F80000F88080F080808000009D
:10237000708880B88888700000888888F888888885
:102380000000702020202020700000080808088825
:10239000887000008890A0C0A09088000080808095
:1023A000808080F8000088D8A88888888800008805
:1023B000C8A89888888800007088888888887000F5
:1023C00000F08888F0808080000070888888A8905D
:1023D000680000F08888F0A0908800007088807005
:1023E0000888700000F82020202020200000888825
:1023F0008888888870000088888888885020000035
:1024000088888888A8A8700000888850205088880C
:102410000000888888502020200000F80810204004
:1024200080F8000070404040404070000040402074
:1024300020201010000070101010101070000020EC
:102440005080000000000000000000000000F800C4
:1024500000202010000000000000000070087898A4
:10246000680000008080F08888F00000000078801C
:1024700080807800000008087888887800000000D4
:102480007088F080700000304040604040400000A4
:10249000000078887808700000000000000000004C
:1024A000000000000000000000000000000000002C
:1024B000000000000000000000000000000000001C
:1024C000000000000000000000000000000000000C
:1024D00000000000000000000000000000000000FC
:1024E00000000000000000000000000000000000EC
:1024F00000000000000000000000000000000000DC
:1025000000000000000000000000000000000000CB
:1025100000000000000000000000000000000000BB
:1025200000000000000000000000000000000000AB
:10253000000000000000000000000000000000009B
:10254000000000000000000000000000000000008B
:10255000000000000000000000000000000000007B
:10256000000000000000000000000000000000006B
:10257000303030313032303330343035303630373F
:102580003038303931303131313231333134313525
:10259000313631373138313932303231323232330B
:1025A000323432353236323732383239CC250008BF
:1025B0000000002044000000280100081026000848
:1025C00044000020F42F000044010008C80000006F
:1025D00000000000000000000000000000000000FB
:1025E00001000000000000000000000000000000EA
:1025F0000000000000000000014200010203040589
:10260000060708090A0B0C0D0E0F00000000000061
:04000005080000ED02
:00000001FF
